S016000070726F736A65746B5F6D696B726F2E737265631B
S11300000C9434000C9451000C9451000C94510045
S11300100C9451000C94D1000C9451000C94510098
S11300200C9451000C9451000C9451000C94510008
S11300300C9451000C9451000C9451000C945100F8
S11300400C9451000C9451000C9451000C945100E8
S11300500C9451000C9451000C9451000C945100D8
S11300600C9451000C94510011241FBECFEFD8E022
S1130070DEBFCDBF11E0A0E0B1E0E6EBF2E002C0EC
S113008005900D92AC31B107D9F721E0ACE1B1E0B4
S113009001C01D92AF31B207E1F70E9453000C94E6
S11300A059010C94000088E48AB986E084B980E69A
S11300B080937C0087E080937E0087E880937A00B9
S11300C083E884BD84E085BD91EA909380009CE040
S11300D0909381008093680088E080936D00789409
S11300E00E94FE0080E680937C00EAE7F0E08081D5
S11300F08064808380917A0086FDFCCF80917900B2
S113010080931C0180E091E00E94160180911C0103
S11301100E94290185E091E00E94160181E6809306
S11301207C00EAE7F0E080818064808380917A003B
S113013086FDFCCF8091790080931D018DE091E0D4
S11301400E94160180911D010E94290185E091E021
S11301500E94160182E680937C00EAE7F0E0808149
S11301608064808380917A0086FDFCCF8091790041
S113017080931E0184E191E00E94160180911E018A
S11301800E94290189E191E00E94160180E197E231
S113019005C0E0E9F1E03197F1F701970097C9F75D
S11301A0A1CF1F920F920FB60F9211248F939F939A
S11301B0EF93FF9380911C0187BD80911D0190E016
S11301C0909389008093880080911E0190E0909321
S11301D08B0080938A0088EE93E005C0E0E9F1E0AB
S11301E03197F1F701970097C9F7FF91EF919F912C
S11301F08F910F900FBE0F901F9018951092C5000D
S113020087E68093C400E0ECF0E080818D7F8083FA
S113021088E18093C10086E08093C20008959091A4
S1130220C00095FFFCCF8093C60008950F931F93E1
S1130230CF938C01C0E003C00E940F01CF5FF8018F
S1130240EC0FF11D80818111F7CFCF911F910F9198
S11302500895CF93DF93D82F89E2D89F812D11245D
S113026082958F70805D0E940F019DECD99FC12DF6
S11302701124C695C695C695C99F912D11249695AE
S113028096959695990F892F880F880F980F8C2F24
S1130290891B805D0E940F01CC0F8C2F880F880F63
S11302A0C80F8D2F8C1B805D0E940F01DF91CF91B1
S10902B00895F894FFCF4D
S11302B652F8643A0020202D2D2D2020004772F894
S10F02C66E6E3A00426CE53A000D0A002E
S9030000FC
